{
  "contractName": "BlockBallot",
  "abi": [
    {
      "anonymous": false,
      "inputs": [
        {
          "indexed": true,
          "internalType": "address",
          "name": "voter",
          "type": "address"
        },
        {
          "indexed": false,
          "internalType": "string",
          "name": "candidate",
          "type": "string"
        }
      ],
      "name": "Voted",
      "type": "event"
    },
    {
      "inputs": [
        {
          "internalType": "address",
          "name": "",
          "type": "address"
        }
      ],
      "name": "hasVoted",
      "outputs": [
        {
          "internalType": "bool",
          "name": "",
          "type": "bool"
        }
      ],
      "stateMutability": "view",
      "type": "function",
      "constant": true
    },
    {
      "inputs": [],
      "name": "voteCount",
      "outputs": [
        {
          "internalType": "uint256",
          "name": "",
          "type": "uint256"
        }
      ],
      "stateMutability": "view",
      "type": "function",
      "constant": true
    },
    {
      "inputs": [
        {
          "internalType": "uint256",
          "name": "",
          "type": "uint256"
        }
      ],
      "name": "votersAddress",
      "outputs": [
        {
          "internalType": "address",
          "name": "",
          "type": "address"
        }
      ],
      "stateMutability": "view",
      "type": "function",
      "constant": true
    },
    {
      "inputs": [
        {
          "internalType": "uint256",
          "name": "",
          "type": "uint256"
        }
      ],
      "name": "votersCandidate",
      "outputs": [
        {
          "internalType": "string",
          "name": "",
          "type": "string"
        }
      ],
      "stateMutability": "view",
      "type": "function",
      "constant": true
    },
    {
      "inputs": [
        {
          "internalType": "uint256",
          "name": "",
          "type": "uint256"
        }
      ],
      "name": "votersPolingUnit",
      "outputs": [
        {
          "internalType": "string",
          "name": "",
          "type": "string"
        }
      ],
      "stateMutability": "view",
      "type": "function",
      "constant": true
    },
    {
      "inputs": [
        {
          "internalType": "uint256",
          "name": "",
          "type": "uint256"
        }
      ],
      "name": "votersTimeOfVote",
      "outputs": [
        {
          "internalType": "uint256",
          "name": "",
          "type": "uint256"
        }
      ],
      "stateMutability": "view",
      "type": "function",
      "constant": true
    },
    {
      "inputs": [
        {
          "internalType": "string",
          "name": "",
          "type": "string"
        }
      ],
      "name": "votes",
      "outputs": [
        {
          "internalType": "uint256",
          "name": "",
          "type": "uint256"
        }
      ],
      "stateMutability": "view",
      "type": "function",
      "constant": true
    },
    {
      "inputs": [
        {
          "internalType": "string",
          "name": "candidate",
          "type": "string"
        },
        {
          "internalType": "string",
          "name": "polingUnit",
          "type": "string"
        }
      ],
      "name": "vote",
      "outputs": [],
      "stateMutability": "nonpayable",
      "type": "function"
    },
    {
      "inputs": [
        {
          "internalType": "string",
          "name": "candidate",
          "type": "string"
        }
      ],
      "name": "getVoteCountOfCanditate",
      "outputs": [
        {
          "internalType": "uint256",
          "name": "data",
          "type": "uint256"
        }
      ],
      "stateMutability": "view",
      "type": "function",
      "constant": true
    },
    {
      "inputs": [],
      "name": "getTotalVoteCount",
      "outputs": [
        {
          "internalType": "uint256",
          "name": "data",
          "type": "uint256"
        }
      ],
      "stateMutability": "view",
      "type": "function",
      "constant": true
    },
    {
      "inputs": [],
      "name": "getAllVotersAddress",
      "outputs": [
        {
          "internalType": "address[]",
          "name": "",
          "type": "address[]"
        }
      ],
      "stateMutability": "view",
      "type": "function",
      "constant": true
    },
    {
      "inputs": [],
      "name": "getAllVotersCandidate",
      "outputs": [
        {
          "internalType": "string[]",
          "name": "",
          "type": "string[]"
        }
      ],
      "stateMutability": "view",
      "type": "function",
      "constant": true
    },
    {
      "inputs": [],
      "name": "getAllVotersPolingUnit",
      "outputs": [
        {
          "internalType": "string[]",
          "name": "",
          "type": "string[]"
        }
      ],
      "stateMutability": "view",
      "type": "function",
      "constant": true
    },
    {
      "inputs": [],
      "name": "getAllVotersTimeOfVote",
      "outputs": [
        {
          "internalType": "uint256[]",
          "name": "",
          "type": "uint256[]"
        }
      ],
      "stateMutability": "view",
      "type": "function",
      "constant": true
    }
  ],
  "bytecode": "0x6080604052600060065534801561001557600080fd5b506115f1806100256000396000f3fe608060405234801561001057600080fd5b50600436106100ea5760003560e01c80637ef6d5631161008c578063c638407111610066578063c638407114610287578063d8086964146102a5578063e8d5940d146102d5578063face4e76146102f1576100ea565b80637ef6d563146102095780639f48ca1614610239578063b99ef1fa14610257576100ea565b8063288c72e8116100c8578063288c72e81461016d5780632a3e7d651461018b57806339bfe8a0146101bb57806343242daa146101d9576100ea565b806309eef43e146100ef578063117a23c31461011f57806312c555401461013d575b600080fd5b61010960048036038101906101049190610ad1565b61030f565b6040516101169190610b19565b60405180910390f35b61012761032f565b6040516101349190610c86565b60405180910390f35b61015760048036038101906101529190610cde565b610408565b6040516101649190610d1a565b60405180910390f35b61017561042c565b6040516101829190610d1a565b60405180910390f35b6101a560048036038101906101a09190610e6a565b610436565b6040516101b29190610d1a565b60405180910390f35b6101c361045e565b6040516101d09190610f71565b60405180910390f35b6101f360048036038101906101ee9190610cde565b6104ec565b6040516102009190610fa2565b60405180910390f35b610223600480360381019061021e9190610cde565b61052b565b6040516102309190611007565b60405180910390f35b6102416105d7565b60405161024e9190610c86565b60405180910390f35b610271600480360381019061026c9190610e6a565b6106b0565b60405161027e9190610d1a565b60405180910390f35b61028f6106de565b60405161029c9190610d1a565b60405180910390f35b6102bf60048036038101906102ba9190610cde565b6106e4565b6040516102cc9190611007565b60405180910390f35b6102ef60048036038101906102ea9190611029565b610790565b005b6102f9610a07565b604051610306919061115f565b60405180910390f35b60006020528060005260406000206000915054906101000a900460ff1681565b60606003805480602002602001604051908101604052809291908181526020016000905b828210156103ff578382906000526020600020018054610372906111b0565b80601f016020809104026020016040519081016040528092919081815260200182805461039e906111b0565b80156103eb5780601f106103c0576101008083540402835291602001916103eb565b820191906000526020600020905b8154815290600101906020018083116103ce57829003601f168201915b505050505081526020019060010190610353565b50505050905090565b6004818154811061041857600080fd5b906000526020600020016000915090505481565b6000600654905090565b6000600582604051610448919061121d565b9081526020016040518091039020549050919050565b606060018054806020026020016040519081016040528092919081815260200182805480156104e257602002820191906000526020600020905b8160009054906101000a900473ffffffffffffffffffffffffffffffffffffffff1673ffffffffffffffffffffffffffffffffffffffff1681526020019060010190808311610498575b5050505050905090565b600181815481106104fc57600080fd5b906000526020600020016000915054906101000a900473ffffffffffffffffffffffffffffffffffffffff1681565b6002818154811061053b57600080fd5b906000526020600020016000915090508054610556906111b0565b80601f0160208091040260200160405190810160405280929190818152602001828054610582906111b0565b80156105cf5780601f106105a4576101008083540402835291602001916105cf565b820191906000526020600020905b8154815290600101906020018083116105b257829003601f168201915b505050505081565b60606002805480602002602001604051908101604052809291908181526020016000905b828210156106a757838290600052602060002001805461061a906111b0565b80601f0160208091040260200160405190810160405280929190818152602001828054610646906111b0565b80156106935780601f1061066857610100808354040283529160200191610693565b820191906000526020600020905b81548152906001019060200180831161067657829003601f168201915b5050505050815260200190600101906105fb565b50505050905090565b6005818051602081018201805184825260208301602085012081835280955050505050506000915090505481565b60065481565b600381815481106106f457600080fd5b90600052602060002001600091509050805461070f906111b0565b80601f016020809104026020016040519081016040528092919081815260200182805461073b906111b0565b80156107885780601f1061075d57610100808354040283529160200191610788565b820191906000526020600020905b81548152906001019060200180831161076b57829003601f168201915b505050505081565b6000803373ffffffffffffffffffffffffffffffffffffffff1673ffffffffffffffffffffffffffffffffffffffff16815260200190815260200160002060009054906101000a900460ff161561081c576040517f08c379a0000000000000000000000000000000000000000000000000000000008152600401610813906112a6565b60405180910390fd5b60058260405161082c919061121d565b9081526020016040518091039020600081548092919061084b906112f5565b919050555060016000803373ffffffffffffffffffffffffffffffffffffffff1673ffffffffffffffffffffffffffffffffffffffff16815260200190815260200160002060006101000a81548160ff0219169083151502179055506001339080600181540180825580915050600190039060005260206000200160009091909190916101000a81548173ffffffffffffffffffffffffffffffffffffffff021916908373ffffffffffffffffffffffffffffffffffffffff16021790555060028290806001815401808255809150506001900390600052602060002001600090919091909150908161093e91906114e9565b5060038190806001815401808255809150506001900390600052602060002001600090919091909150908161097391906114e9565b506004429080600181540180825580915050600190039060005260206000200160009091909190915055600660008154809291906109b0906112f5565b91905055503373ffffffffffffffffffffffffffffffffffffffff167fcb6783276e8a4347387036bbfea000268f0a4b1f8c46ac79980609f2af8d2acd836040516109fb9190611007565b60405180910390a25050565b60606004805480602002602001604051908101604052809291908181526020018280548015610a5557602002820191906000526020600020905b815481526020019060010190808311610a41575b5050505050905090565b6000604051905090565b600080fd5b600080fd5b600073ffffffffffffffffffffffffffffffffffffffff82169050919050565b6000610a9e82610a73565b9050919050565b610aae81610a93565b8114610ab957600080fd5b50565b600081359050610acb81610aa5565b92915050565b600060208284031215610ae757610ae6610a69565b5b6000610af584828501610abc565b91505092915050565b60008115159050919050565b610b1381610afe565b82525050565b6000602082019050610b2e6000830184610b0a565b92915050565b600081519050919050565b600082825260208201905092915050565b6000819050602082019050919050565b600081519050919050565b600082825260208201905092915050565b60005b83811015610b9a578082015181840152602081019050610b7f565b60008484015250505050565b6000601f19601f8301169050919050565b6000610bc282610b60565b610bcc8185610b6b565b9350610bdc818560208601610b7c565b610be581610ba6565b840191505092915050565b6000610bfc8383610bb7565b905092915050565b6000602082019050919050565b6000610c1c82610b34565b610c268185610b3f565b935083602082028501610c3885610b50565b8060005b85811015610c745784840389528151610c558582610bf0565b9450610c6083610c04565b925060208a01995050600181019050610c3c565b50829750879550505050505092915050565b60006020820190508181036000830152610ca08184610c11565b905092915050565b6000819050919050565b610cbb81610ca8565b8114610cc657600080fd5b50565b600081359050610cd881610cb2565b92915050565b600060208284031215610cf457610cf3610a69565b5b6000610d0284828501610cc9565b91505092915050565b610d1481610ca8565b82525050565b6000602082019050610d2f6000830184610d0b565b92915050565b600080fd5b600080fd5b7f4e487b7100000000000000000000000000000000000000000000000000000000600052604160045260246000fd5b610d7782610ba6565b810181811067ffffffffffffffff82111715610d9657610d95610d3f565b5b80604052505050565b6000610da9610a5f565b9050610db58282610d6e565b919050565b600067ffffffffffffffff821115610dd557610dd4610d3f565b5b610dde82610ba6565b9050602081019050919050565b82818337600083830152505050565b6000610e0d610e0884610dba565b610d9f565b905082815260208101848484011115610e2957610e28610d3a565b5b610e34848285610deb565b509392505050565b600082601f830112610e5157610e50610d35565b5b8135610e61848260208601610dfa565b91505092915050565b600060208284031215610e8057610e7f610a69565b5b600082013567ffffffffffffffff811115610e9e57610e9d610a6e565b5b610eaa84828501610e3c565b91505092915050565b600081519050919050565b600082825260208201905092915050565b6000819050602082019050919050565b610ee881610a93565b82525050565b6000610efa8383610edf565b60208301905092915050565b6000602082019050919050565b6000610f1e82610eb3565b610f288185610ebe565b9350610f3383610ecf565b8060005b83811015610f64578151610f4b8882610eee565b9750610f5683610f06565b925050600181019050610f37565b5085935050505092915050565b60006020820190508181036000830152610f8b8184610f13565b905092915050565b610f9c81610a93565b82525050565b6000602082019050610fb76000830184610f93565b92915050565b600082825260208201905092915050565b6000610fd982610b60565b610fe38185610fbd565b9350610ff3818560208601610b7c565b610ffc81610ba6565b840191505092915050565b600060208201905081810360008301526110218184610fce565b905092915050565b600080604083850312156110405761103f610a69565b5b600083013567ffffffffffffffff81111561105e5761105d610a6e565b5b61106a85828601610e3c565b925050602083013567ffffffffffffffff81111561108b5761108a610a6e565b5b61109785828601610e3c565b9150509250929050565b600081519050919050565b600082825260208201905092915050565b6000819050602082019050919050565b6110d681610ca8565b82525050565b60006110e883836110cd565b60208301905092915050565b6000602082019050919050565b600061110c826110a1565b61111681856110ac565b9350611121836110bd565b8060005b8381101561115257815161113988826110dc565b9750611144836110f4565b925050600181019050611125565b5085935050505092915050565b600060208201905081810360008301526111798184611101565b905092915050565b7f4e487b7100000000000000000000000000000000000000000000000000000000600052602260045260246000fd5b600060028204905060018216806111c857607f821691505b6020821081036111db576111da611181565b5b50919050565b600081905092915050565b60006111f782610b60565b61120181856111e1565b9350611211818560208601610b7c565b80840191505092915050565b600061122982846111ec565b915081905092915050565b7f557365722077697468207468697320616464726573732068617320616c72656160008201527f647920766f7465642e0000000000000000000000000000000000000000000000602082015250565b6000611290602983610fbd565b915061129b82611234565b604082019050919050565b600060208201905081810360008301526112bf81611283565b9050919050565b7f4e487b7100000000000000000000000000000000000000000000000000000000600052601160045260246000fd5b600061130082610ca8565b91507fffffffffffffffffffffffffffffffffffffffffffffffffffffffffffffffff8203611332576113316112c6565b5b600182019050919050565b60008190508160005260206000209050919050565b60006020601f8301049050919050565b600082821b905092915050565b60006008830261139f7fffffffffffffffffffffffffffffffffffffffffffffffffffffffffffffffff82611362565b6113a98683611362565b95508019841693508086168417925050509392505050565b6000819050919050565b60006113e66113e16113dc84610ca8565b6113c1565b610ca8565b9050919050565b6000819050919050565b611400836113cb565b61141461140c826113ed565b84845461136f565b825550505050565b600090565b61142961141c565b6114348184846113f7565b505050565b5b818110156114585761144d600082611421565b60018101905061143a565b5050565b601f82111561149d5761146e8161133d565b61147784611352565b81016020851015611486578190505b61149a61149285611352565b830182611439565b50505b505050565b600082821c905092915050565b60006114c0600019846008026114a2565b1980831691505092915050565b60006114d983836114af565b9150826002028217905092915050565b6114f282610b60565b67ffffffffffffffff81111561150b5761150a610d3f565b5b61151582546111b0565b61152082828561145c565b600060209050601f8311600181146115535760008415611541578287015190505b61154b85826114cd565b8655506115b3565b601f1984166115618661133d565b60005b8281101561158957848901518255600182019150602085019450602081019050611564565b868310156115a657848901516115a2601f8916826114af565b8355505b6001600288020188555050505b50505050505056fea2646970667358221220354a6c8afa1a246b66dc10afc7777f829534eddadc9132a720b140fcd94c49cb64736f6c63430008130033",
  "immutableReferences": {},
  "source": "// SPDX-License-Identifier: MIT\r\npragma solidity ^0.8.19;\r\n\r\ncontract BlockBallot {\r\n    // stores address of the user who has voted\r\n    mapping (address => bool) public hasVoted;\r\n\r\n    // for storing voters data for frontend use\r\n    address[] public votersAddress;\r\n    string[] public votersCandidate;\r\n    string[] public votersPolingUnit;\r\n    uint[] public votersTimeOfVote; \r\n\r\n    // stores the number of votes of each candidate\r\n    mapping (string => uint256) public votes;\r\n    // stores the total number of votes\r\n    uint256 public voteCount = 0;\r\n\r\n    // event dispatched on successful vote\r\n    event Voted(address indexed voter, string candidate);\r\n\r\n    // the main vote function\r\n    function vote(string memory candidate, string memory polingUnit) external {\r\n\r\n        // check if this user has already voted\r\n        require(!hasVoted[msg.sender], \"User with this address has already voted.\");\r\n\r\n        // increment candidates no. of votes\r\n        votes[candidate]++;\r\n        hasVoted[msg.sender] = true;\r\n\r\n        // store voters data\r\n        votersAddress.push(msg.sender);\r\n        votersCandidate.push(candidate);\r\n        votersPolingUnit.push(polingUnit);\r\n        votersTimeOfVote.push(block.timestamp);\r\n\r\n        // increment total no. of votes\r\n        voteCount++;\r\n\r\n        emit Voted(msg.sender, candidate);\r\n    }\r\n\r\n    // returns the vote count of a candidate\r\n    function getVoteCountOfCanditate(string memory candidate) public view returns (uint256 data) {\r\n        return votes[candidate];\r\n    }\r\n\r\n    // returns the total vote count\r\n    function getTotalVoteCount() public view returns (uint256 data) {\r\n        return voteCount;\r\n    }\r\n\r\n    // user data functions\r\n    function getAllVotersAddress() public view returns (address[] memory) {\r\n        return votersAddress;\r\n    }\r\n    function getAllVotersCandidate() public view returns (string[] memory) {\r\n        return votersCandidate;\r\n    }\r\n    function getAllVotersPolingUnit() public view returns (string[] memory) {\r\n        return votersPolingUnit;\r\n    }\r\n    function getAllVotersTimeOfVote() public view returns (uint[] memory) {\r\n        return votersTimeOfVote;\r\n    }\r\n}",
  "sourcePath": "C:\\Users\\Abdullah\\Downloads\\blockchain-course-project\\contracts\\BlockBallot.sol",
  "compiler": {
    "name": "solc",
    "version": "0.8.19+commit.7dd6d404.Emscripten.clang"
  },
  "schemaVersion": "3.4.16",
  "updatedAt": "2023-12-09T16:28:46.494Z",
  "networkType": "ethereum",
  "devdoc": {
    "kind": "dev",
    "methods": {},
    "version": 1
  },
  "userdoc": {
    "kind": "user",
    "methods": {},
    "version": 1
  }
}