{
  "contractName": "BlockBallot",
  "abi": [
    {
      "anonymous": false,
      "inputs": [
        {
          "indexed": true,
          "internalType": "address",
          "name": "voter",
          "type": "address"
        },
        {
          "indexed": false,
          "internalType": "string",
          "name": "candidate",
          "type": "string"
        }
      ],
      "name": "Voted",
      "type": "event"
    },
    {
      "inputs": [
        {
          "internalType": "address",
          "name": "",
          "type": "address"
        }
      ],
      "name": "hasVoted",
      "outputs": [
        {
          "internalType": "bool",
          "name": "",
          "type": "bool"
        }
      ],
      "stateMutability": "view",
      "type": "function",
      "constant": true
    },
    {
      "inputs": [],
      "name": "voteCount",
      "outputs": [
        {
          "internalType": "uint256",
          "name": "",
          "type": "uint256"
        }
      ],
      "stateMutability": "view",
      "type": "function",
      "constant": true
    },
    {
      "inputs": [
        {
          "internalType": "uint256",
          "name": "",
          "type": "uint256"
        }
      ],
      "name": "votersAddress",
      "outputs": [
        {
          "internalType": "address",
          "name": "",
          "type": "address"
        }
      ],
      "stateMutability": "view",
      "type": "function",
      "constant": true
    },
    {
      "inputs": [
        {
          "internalType": "uint256",
          "name": "",
          "type": "uint256"
        }
      ],
      "name": "votersCandidate",
      "outputs": [
        {
          "internalType": "string",
          "name": "",
          "type": "string"
        }
      ],
      "stateMutability": "view",
      "type": "function",
      "constant": true
    },
    {
      "inputs": [
        {
          "internalType": "uint256",
          "name": "",
          "type": "uint256"
        }
      ],
      "name": "votersPolingUnit",
      "outputs": [
        {
          "internalType": "string",
          "name": "",
          "type": "string"
        }
      ],
      "stateMutability": "view",
      "type": "function",
      "constant": true
    },
    {
      "inputs": [
        {
          "internalType": "uint256",
          "name": "",
          "type": "uint256"
        }
      ],
      "name": "votersTimeOfVote",
      "outputs": [
        {
          "internalType": "string",
          "name": "",
          "type": "string"
        }
      ],
      "stateMutability": "view",
      "type": "function",
      "constant": true
    },
    {
      "inputs": [
        {
          "internalType": "string",
          "name": "",
          "type": "string"
        }
      ],
      "name": "votes",
      "outputs": [
        {
          "internalType": "uint256",
          "name": "",
          "type": "uint256"
        }
      ],
      "stateMutability": "view",
      "type": "function",
      "constant": true
    },
    {
      "inputs": [
        {
          "internalType": "string",
          "name": "candidate",
          "type": "string"
        },
        {
          "internalType": "string",
          "name": "polingUnit",
          "type": "string"
        },
        {
          "internalType": "string",
          "name": "timeOfVote",
          "type": "string"
        }
      ],
      "name": "vote",
      "outputs": [],
      "stateMutability": "nonpayable",
      "type": "function"
    },
    {
      "inputs": [
        {
          "internalType": "string",
          "name": "candidate",
          "type": "string"
        }
      ],
      "name": "getVoteCountOfCandidate",
      "outputs": [
        {
          "internalType": "uint256",
          "name": "data",
          "type": "uint256"
        }
      ],
      "stateMutability": "view",
      "type": "function",
      "constant": true
    },
    {
      "inputs": [],
      "name": "getTotalVoteCount",
      "outputs": [
        {
          "internalType": "uint256",
          "name": "data",
          "type": "uint256"
        }
      ],
      "stateMutability": "view",
      "type": "function",
      "constant": true
    },
    {
      "inputs": [],
      "name": "getAllVotersAddress",
      "outputs": [
        {
          "internalType": "address[]",
          "name": "",
          "type": "address[]"
        }
      ],
      "stateMutability": "view",
      "type": "function",
      "constant": true
    },
    {
      "inputs": [],
      "name": "getAllVotersCandidate",
      "outputs": [
        {
          "internalType": "string[]",
          "name": "",
          "type": "string[]"
        }
      ],
      "stateMutability": "view",
      "type": "function",
      "constant": true
    },
    {
      "inputs": [],
      "name": "getAllVotersPolingUnit",
      "outputs": [
        {
          "internalType": "string[]",
          "name": "",
          "type": "string[]"
        }
      ],
      "stateMutability": "view",
      "type": "function",
      "constant": true
    },
    {
      "inputs": [],
      "name": "getAllVotersTimeOfVote",
      "outputs": [
        {
          "internalType": "string[]",
          "name": "",
          "type": "string[]"
        }
      ],
      "stateMutability": "view",
      "type": "function",
      "constant": true
    }
  ],
  "bytecode": "0x6080604052600060065534801561001557600080fd5b50611656806100256000396000f3fe608060405234801561001057600080fd5b50600436106100ea5760003560e01c80637ef6d5631161008c578063b99ef1fa11610066578063b99ef1fa14610273578063c6384071146102a3578063d8086964146102c1578063face4e76146102f1576100ea565b80637ef6d5631461020957806395f59fe1146102395780639f48ca1614610255576100ea565b8063288c72e8116100c8578063288c72e81461016d57806339bfe8a01461018b5780633a824968146101a957806343242daa146101d9576100ea565b806309eef43e146100ef578063117a23c31461011f57806312c555401461013d575b600080fd5b61010960048036038101906101049190610be7565b61030f565b6040516101169190610c2f565b60405180910390f35b61012761032f565b6040516101349190610d9c565b60405180910390f35b61015760048036038101906101529190610df4565b610408565b6040516101649190610e6b565b60405180910390f35b6101756104b4565b6040516101829190610e9c565b60405180910390f35b6101936104be565b6040516101a09190610f75565b60405180910390f35b6101c360048036038101906101be91906110cc565b61054c565b6040516101d09190610e9c565b60405180910390f35b6101f360048036038101906101ee9190610df4565b610574565b6040516102009190611124565b60405180910390f35b610223600480360381019061021e9190610df4565b6105b3565b6040516102309190610e6b565b60405180910390f35b610253600480360381019061024e919061113f565b61065f565b005b61025d6108e3565b60405161026a9190610d9c565b60405180910390f35b61028d600480360381019061028891906110cc565b6109bc565b60405161029a9190610e9c565b60405180910390f35b6102ab6109ea565b6040516102b89190610e9c565b60405180910390f35b6102db60048036038101906102d69190610df4565b6109f0565b6040516102e89190610e6b565b60405180910390f35b6102f9610a9c565b6040516103069190610d9c565b60405180910390f35b60006020528060005260406000206000915054906101000a900460ff1681565b60606003805480602002602001604051908101604052809291908181526020016000905b828210156103ff57838290600052602060002001805461037290611215565b80601f016020809104026020016040519081016040528092919081815260200182805461039e90611215565b80156103eb5780601f106103c0576101008083540402835291602001916103eb565b820191906000526020600020905b8154815290600101906020018083116103ce57829003601f168201915b505050505081526020019060010190610353565b50505050905090565b6004818154811061041857600080fd5b90600052602060002001600091509050805461043390611215565b80601f016020809104026020016040519081016040528092919081815260200182805461045f90611215565b80156104ac5780601f10610481576101008083540402835291602001916104ac565b820191906000526020600020905b81548152906001019060200180831161048f57829003601f168201915b505050505081565b6000600654905090565b6060600180548060200260200160405190810160405280929190818152602001828054801561054257602002820191906000526020600020905b8160009054906101000a900473ffffffffffffffffffffffffffffffffffffffff1673ffffffffffffffffffffffffffffffffffffffff16815260200190600101908083116104f8575b5050505050905090565b600060058260405161055e9190611282565b9081526020016040518091039020549050919050565b6001818154811061058457600080fd5b906000526020600020016000915054906101000a900473ffffffffffffffffffffffffffffffffffffffff1681565b600281815481106105c357600080fd5b9060005260206000200160009150905080546105de90611215565b80601f016020809104026020016040519081016040528092919081815260200182805461060a90611215565b80156106575780601f1061062c57610100808354040283529160200191610657565b820191906000526020600020905b81548152906001019060200180831161063a57829003601f168201915b505050505081565b6000803373ffffffffffffffffffffffffffffffffffffffff1673ffffffffffffffffffffffffffffffffffffffff16815260200190815260200160002060009054906101000a900460ff16156106eb576040517f08c379a00000000000000000000000000000000000000000000000000000000081526004016106e29061130b565b60405180910390fd5b6005836040516106fb9190611282565b9081526020016040518091039020600081548092919061071a9061135a565b919050555060016000803373ffffffffffffffffffffffffffffffffffffffff1673ffffffffffffffffffffffffffffffffffffffff16815260200190815260200160002060006101000a81548160ff0219169083151502179055506001339080600181540180825580915050600190039060005260206000200160009091909190916101000a81548173ffffffffffffffffffffffffffffffffffffffff021916908373ffffffffffffffffffffffffffffffffffffffff16021790555060028390806001815401808255809150506001900390600052602060002001600090919091909150908161080d919061154e565b50600382908060018154018082558091505060019003906000526020600020016000909190919091509081610842919061154e565b50600481908060018154018082558091505060019003906000526020600020016000909190919091509081610877919061154e565b506006600081548092919061088b9061135a565b91905055503373ffffffffffffffffffffffffffffffffffffffff167fcb6783276e8a4347387036bbfea000268f0a4b1f8c46ac79980609f2af8d2acd846040516108d69190610e6b565b60405180910390a2505050565b60606002805480602002602001604051908101604052809291908181526020016000905b828210156109b357838290600052602060002001805461092690611215565b80601f016020809104026020016040519081016040528092919081815260200182805461095290611215565b801561099f5780601f106109745761010080835404028352916020019161099f565b820191906000526020600020905b81548152906001019060200180831161098257829003601f168201915b505050505081526020019060010190610907565b50505050905090565b6005818051602081018201805184825260208301602085012081835280955050505050506000915090505481565b60065481565b60038181548110610a0057600080fd5b906000526020600020016000915090508054610a1b90611215565b80601f0160208091040260200160405190810160405280929190818152602001828054610a4790611215565b8015610a945780601f10610a6957610100808354040283529160200191610a94565b820191906000526020600020905b815481529060010190602001808311610a7757829003601f168201915b505050505081565b60606004805480602002602001604051908101604052809291908181526020016000905b82821015610b6c578382906000526020600020018054610adf90611215565b80601f0160208091040260200160405190810160405280929190818152602001828054610b0b90611215565b8015610b585780601f10610b2d57610100808354040283529160200191610b58565b820191906000526020600020905b815481529060010190602001808311610b3b57829003601f168201915b505050505081526020019060010190610ac0565b50505050905090565b6000604051905090565b600080fd5b600080fd5b600073ffffffffffffffffffffffffffffffffffffffff82169050919050565b6000610bb482610b89565b9050919050565b610bc481610ba9565b8114610bcf57600080fd5b50565b600081359050610be181610bbb565b92915050565b600060208284031215610bfd57610bfc610b7f565b5b6000610c0b84828501610bd2565b91505092915050565b60008115159050919050565b610c2981610c14565b82525050565b6000602082019050610c446000830184610c20565b92915050565b600081519050919050565b600082825260208201905092915050565b6000819050602082019050919050565b600081519050919050565b600082825260208201905092915050565b60005b83811015610cb0578082015181840152602081019050610c95565b60008484015250505050565b6000601f19601f8301169050919050565b6000610cd882610c76565b610ce28185610c81565b9350610cf2818560208601610c92565b610cfb81610cbc565b840191505092915050565b6000610d128383610ccd565b905092915050565b6000602082019050919050565b6000610d3282610c4a565b610d3c8185610c55565b935083602082028501610d4e85610c66565b8060005b85811015610d8a5784840389528151610d6b8582610d06565b9450610d7683610d1a565b925060208a01995050600181019050610d52565b50829750879550505050505092915050565b60006020820190508181036000830152610db68184610d27565b905092915050565b6000819050919050565b610dd181610dbe565b8114610ddc57600080fd5b50565b600081359050610dee81610dc8565b92915050565b600060208284031215610e0a57610e09610b7f565b5b6000610e1884828501610ddf565b91505092915050565b600082825260208201905092915050565b6000610e3d82610c76565b610e478185610e21565b9350610e57818560208601610c92565b610e6081610cbc565b840191505092915050565b60006020820190508181036000830152610e858184610e32565b905092915050565b610e9681610dbe565b82525050565b6000602082019050610eb16000830184610e8d565b92915050565b600081519050919050565b600082825260208201905092915050565b6000819050602082019050919050565b610eec81610ba9565b82525050565b6000610efe8383610ee3565b60208301905092915050565b6000602082019050919050565b6000610f2282610eb7565b610f2c8185610ec2565b9350610f3783610ed3565b8060005b83811015610f68578151610f4f8882610ef2565b9750610f5a83610f0a565b925050600181019050610f3b565b5085935050505092915050565b60006020820190508181036000830152610f8f8184610f17565b905092915050565b600080fd5b600080fd5b7f4e487b7100000000000000000000000000000000000000000000000000000000600052604160045260246000fd5b610fd982610cbc565b810181811067ffffffffffffffff82111715610ff857610ff7610fa1565b5b80604052505050565b600061100b610b75565b90506110178282610fd0565b919050565b600067ffffffffffffffff82111561103757611036610fa1565b5b61104082610cbc565b9050602081019050919050565b82818337600083830152505050565b600061106f61106a8461101c565b611001565b90508281526020810184848401111561108b5761108a610f9c565b5b61109684828561104d565b509392505050565b600082601f8301126110b3576110b2610f97565b5b81356110c384826020860161105c565b91505092915050565b6000602082840312156110e2576110e1610b7f565b5b600082013567ffffffffffffffff811115611100576110ff610b84565b5b61110c8482850161109e565b91505092915050565b61111e81610ba9565b82525050565b60006020820190506111396000830184611115565b92915050565b60008060006060848603121561115857611157610b7f565b5b600084013567ffffffffffffffff81111561117657611175610b84565b5b6111828682870161109e565b935050602084013567ffffffffffffffff8111156111a3576111a2610b84565b5b6111af8682870161109e565b925050604084013567ffffffffffffffff8111156111d0576111cf610b84565b5b6111dc8682870161109e565b9150509250925092565b7f4e487b7100000000000000000000000000000000000000000000000000000000600052602260045260246000fd5b6000600282049050600182168061122d57607f821691505b6020821081036112405761123f6111e6565b5b50919050565b600081905092915050565b600061125c82610c76565b6112668185611246565b9350611276818560208601610c92565b80840191505092915050565b600061128e8284611251565b915081905092915050565b7f557365722077697468207468697320616464726573732068617320616c72656160008201527f647920766f7465642e0000000000000000000000000000000000000000000000602082015250565b60006112f5602983610e21565b915061130082611299565b604082019050919050565b60006020820190508181036000830152611324816112e8565b9050919050565b7f4e487b7100000000000000000000000000000000000000000000000000000000600052601160045260246000fd5b600061136582610dbe565b91507fffffffffffffffffffffffffffffffffffffffffffffffffffffffffffffffff82036113975761139661132b565b5b600182019050919050565b60008190508160005260206000209050919050565b60006020601f8301049050919050565b600082821b905092915050565b6000600883026114047fffffffffffffffffffffffffffffffffffffffffffffffffffffffffffffffff826113c7565b61140e86836113c7565b95508019841693508086168417925050509392505050565b6000819050919050565b600061144b61144661144184610dbe565b611426565b610dbe565b9050919050565b6000819050919050565b61146583611430565b61147961147182611452565b8484546113d4565b825550505050565b600090565b61148e611481565b61149981848461145c565b505050565b5b818110156114bd576114b2600082611486565b60018101905061149f565b5050565b601f821115611502576114d3816113a2565b6114dc846113b7565b810160208510156114eb578190505b6114ff6114f7856113b7565b83018261149e565b50505b505050565b600082821c905092915050565b600061152560001984600802611507565b1980831691505092915050565b600061153e8383611514565b9150826002028217905092915050565b61155782610c76565b67ffffffffffffffff8111156115705761156f610fa1565b5b61157a8254611215565b6115858282856114c1565b600060209050601f8311600181146115b857600084156115a6578287015190505b6115b08582611532565b865550611618565b601f1984166115c6866113a2565b60005b828110156115ee578489015182556001820191506020850194506020810190506115c9565b8683101561160b5784890151611607601f891682611514565b8355505b6001600288020188555050505b50505050505056fea264697066735822122085bb7f3888b545195e79069b64cc816ddd2815b31423fe0413a5a6ded3a89c9a64736f6c63430008130033",
  "immutableReferences": {},
  "source": "// SPDX-License-Identifier: MIT\r\npragma solidity ^0.8.19;\r\n\r\ncontract BlockBallot {\r\n    // stores address of the user who has voted\r\n    mapping (address => bool) public hasVoted;\r\n\r\n    // for storing voters data for frontend use\r\n    address[] public votersAddress;\r\n    string[] public votersCandidate;\r\n    string[] public votersPolingUnit;\r\n    string[] public votersTimeOfVote; \r\n\r\n    // stores the number of votes of each candidate\r\n    mapping (string => uint256) public votes;\r\n    // stores the total number of votes\r\n    uint256 public voteCount = 0;\r\n\r\n    // event dispatched on successful vote\r\n    event Voted(address indexed voter, string candidate);\r\n\r\n    // the main vote function\r\n    function vote(string memory candidate, string memory polingUnit, string memory timeOfVote) external {\r\n\r\n        // check if this user has already voted\r\n        require(!hasVoted[msg.sender], \"User with this address has already voted.\");\r\n\r\n        // increment candidates no. of votes\r\n        votes[candidate]++;\r\n        hasVoted[msg.sender] = true;\r\n\r\n        // store voters data\r\n        votersAddress.push(msg.sender);\r\n        votersCandidate.push(candidate);\r\n        votersPolingUnit.push(polingUnit);\r\n        votersTimeOfVote.push(timeOfVote);\r\n\r\n        // increment total no. of votes\r\n        voteCount++;\r\n\r\n        emit Voted(msg.sender, candidate);\r\n    }\r\n\r\n    // returns the vote count of a candidate\r\n    function getVoteCountOfCandidate(string memory candidate) public view returns (uint256 data) {\r\n        return votes[candidate];\r\n    }\r\n\r\n    // returns the total vote count\r\n    function getTotalVoteCount() public view returns (uint256 data) {\r\n        return voteCount;\r\n    }\r\n\r\n    // user data functions\r\n    function getAllVotersAddress() public view returns (address[] memory) {\r\n        return votersAddress;\r\n    }\r\n    function getAllVotersCandidate() public view returns (string[] memory) {\r\n        return votersCandidate;\r\n    }\r\n    function getAllVotersPolingUnit() public view returns (string[] memory) {\r\n        return votersPolingUnit;\r\n    }\r\n    function getAllVotersTimeOfVote() public view returns (string[] memory) {\r\n        return votersTimeOfVote;\r\n    }\r\n}",
  "sourcePath": "C:\\Users\\Abdullah\\Downloads\\blockchain-course-project\\contracts\\BlockBallot.sol",
  "compiler": {
    "name": "solc",
    "version": "0.8.19+commit.7dd6d404.Emscripten.clang"
  },
  "schemaVersion": "3.4.16",
  "updatedAt": "2023-12-09T22:59:32.136Z",
  "networkType": "ethereum",
  "devdoc": {
    "kind": "dev",
    "methods": {},
    "version": 1
  },
  "userdoc": {
    "kind": "user",
    "methods": {},
    "version": 1
  }
}